:100000000C9435000C945D000C945D000C945D0024
:100010000C945D000C945D000C94A2150C945D0092
:100020000C945D000C945D000C945D000C945D00DC
:100030000C945D000C945D000C945D000C945D00CC
:100040000C94EA140C945D000C946A150C944415FD
:100050000C945D000C945D000C945D000C945D00AC
:100060000C945D000C945D003D1511241FBECFEF74
:10007000D8E0DEBFCDBF11E0A0E0B1E0E8E0FEE2F5
:1000800002C005900D92AA35B107D9F722E0AAE582
:10009000B1E001C01D92A039B207E1F710E0C5E35D
:1000A000D0E004C02197FE010E94EC16C433D107B2
:1000B000C9F70E9434150C9402170C940000789430
:1000C00084B5836084BD85B5836085BDEEE6F0E0D0
:1000D000808181608083E1E8F0E082E0808380813C
:1000E00081608083E0E8F0E0808181608083E1EBE3
:1000F000F0E0808184608083E0EBF0E080818160CB
:10010000808387E880937A001092C1000895CF928F
:10011000DF92EF92FF920F931F93CF93DF938C01A7
:10012000DB01D0E0C0E07A0181E0E81AF108452B5C
:10013000A1F0F80180819181FC01208131816D0164
:10014000FFEFCF1ADF0A6C91C801F9010995892BDD
:1001500021F02196A701D601E6CFCE01DF91CF9104
:100160001F910F91FF90EF90DF90CF90089501972E
:1001700009F008956F3F7F4FE1F7E6EEF1E013825B
:10018000128288EE93E0A0E0B0E084839583A6839A
:10019000B78387E191E09183808385EC90E0958738
:1001A000848784EC90E09787868780EC90E0918B41
:1001B000808B81EC90E0938B828B82EC90E0958B2E
:1001C000848B86EC90E0978B868B118E128E138E2B
:1001D000148ECFCFFC01938D848D981720F4891B4A
:1001E000990B019708952FE330E0291B3109820F05
:1001F000932F911D0895FC01918D828D981761F0C8
:10020000A28DAE0FBF2FB11D5D968C91928D9F5F19
:100210009F73928F90E008958FEF9FEF0895FC01F8
:10022000918D828D981731F0828DE80FF11D858DAB
:1002300090E008958FEF9FEF0895FC01218D30E04D
:10024000205C3F4F828DA901481B5109CA018F7361
:100250009927089586EE91E00E941D0121E0892BE7
:1002600009F420E0822F0895CF92DF92EF92FF925F
:100270001F93CF93DF93EC016A017B01122F60E0A3
:1002800079E08DE390E0A70196010E94CA16215003
:100290003109410951095695479537952795E889C0
:1002A000F98982E08083C11481EED806E104F1046B
:1002B00021F0211580E1380798F0E889F98910824A
:1002C00060E874E88EE190E0A70196010E94CA16EA
:1002D0002150310941095109569547953795279580
:1002E000EC85FD853083EE85FF852083188EEC89B3
:1002F000FD891083EA89FB89808188698083EA8986
:10030000FB8980818F7D8083DF91CF911F91FF904A
:10031000EF90DF90CF900895FC01A48DA80FB92F26
:10032000B11DA35ABF4F2C91848D90E001968F731D
:100330009078848FA689B7892C93A089B1898C91F4
:10034000837080648C93938D848D981308950288B4
:10035000F389E02D80818F7D8083F8CF0F931F93E9
:10036000CF93DF93EC0181E0888F9B8D8C8D981764
:10037000B1F0062F8B8D90E001968F739078182F37
:100380008C8D81131EC00FB607FCFACFE889F9895E
:10039000808185FFF5CFCE010E948C01F1CFE889E5
:1003A000F989808185FFE5CF9FB7F894EE89FF89B1
:1003B0006083E889F98980818370806480839FBF2E
:1003C00010C0EB8DEC0FFD2FF11DE35AFF4F0083A2
:1003D0009FB7F8941B8FEA89FB89808180628083B4
:1003E0009FBF81E090E0DF91CF911F910F91089521
:1003F000CF93DF93EC01888D811104C00DC00FB63F
:1004000007FE0DC0EA89FB89808185FDF8CFA889A8
:10041000B9898C9186FFF3CFDF91CF9108958081C8
:1004200085FFF0CFE889F989808185FFEBCFCE0188
:100430000E948C01E7CF80E090E0892B21F00E94A0
:100440002A01811101C008950E940000FCCFA895E7
:1004500088E190EC0FB6F894A895809360000FBEE9
:1004600090936000089583B1806283B9089584B148
:10047000806284B985B1806285B90895E091B9013F
:10048000F091BA018081882371F0E091B901F09177
:10049000BA010580F681E02D808191819093B501AC
:1004A0008093B40108958FEF9FEF9093B5018093EF
:1004B000B40108950F931F93CF93DF938091E501CB
:1004C000811108C1C091BB01D091BC018E010F5FA9
:1004D0001F4F1093BC010093BB010115110529F1B9
:1004E0008091B4019091B50108171907B0F580E02B
:1004F000E091E201F091E301E6892E2F30E0F9016D
:10050000EE0FFF1FEE0FFF1FEE0FFF1FE20FF31F97
:10051000E354FE4F9081923008F081E09091E40125
:10052000992309F4E1C081E0DFC08091B901909185
:10053000BA012091B7013091B8013093BA012093EC
:10054000B9019093B8018093B7018091B6018F5F94
:100550008093B6010E943E02C3CF80E05EC02FEFC1
:100560003FEF3093B5012093B401C2CF3093B50172
:100570002093B401BDCF2681378112963C932E93F0
:1005800011977EC0158A148A9C9191509C9326895C
:100590009091E101921710F42093E10130E0D9012C
:1005A000AA0FBB1FAA0FBB1FAA0FBB1FA20FB31F0F
:1005B000A354BE4F11960D90BC91A02DB583A4837A
:1005C00014962D913C9115973783268314962D917F
:1005D0003C911597E9015B834A8315965C934E9392
:1005E0001497A6892A2F30E0D901AA0FBB1FAA0FA2
:1005F000BB1FAA0FBB1FA20FB31FA354BE4FB387CD
:10060000A2879C919F5F9C932689E091E201F091E3
:10061000E3019689921708F481E0E091B901F09125
:10062000BA019081992309F49ACFE091B901F09130
:10063000BA010580F681E02D0680F781E02D228148
:1006400033810217130708F491CFA285B385248163
:10065000358146815781E9015D834C83268137814D
:1006600044815581E9015B834A83AF014E5F5F4F4F
:1006700011962D913C9112972417350709F47BCFE1
:10068000138612869C9191509C93A489B5891097EA
:1006900009F47DCF2685378560897189E9017D83DD
:1006A0006C832089318966857785E9017B836A833C
:1006B00011966D917C9112979F01245F3F4F6217B5
:1006C000730709F05FCF2089318912963C932E93EE
:1006D000119758CF8091B2019091B30101969093F8
:1006E000B3018093B20180E0DF91CF911F910F9110
:1006F00008950E942702A091E201B091E301CD91FB
:10070000CDBFDD91DEBFFF91EF91DF91CF91BF9122
:10071000AF919F918F917F916F915F914F913F9199
:100720002F911F910F91FF90EF90DF90CF90BF908E
:10073000AF909F908F907F906F905F904F903F9081
:100740002F901F900F900FBE0F90089581E0089595
:10075000FC0160833197708331971082319720E8D4
:100760002083319710827797408331975083839706
:100770000895CF93DF93FC01A085B185C281D38119
:10078000848195819D838C83C481D581828193816D
:100790009B838A8311968D919C9112978E179F0748
:1007A00041F0118610868C9181508C93DF91CF910E
:1007B00008958481958112969C938E931197F1CF21
:1007C000CF93DF93EB01488159814F3F540719F0D4
:1007D000DC01139605C0FC01A781B0850AC0DF01CA
:1007E0001296ED91FC9113972081318142175307A6
:1007F000B0F71296ED91FC911397FB83EA83D583B2
:10080000C483BD83AC831396DC93CE9312979987F0
:100810008887FC0120812F5F2083DF91CF9108958D
:10082000FC01118610860895FC0103969283818352
:100830002FEF3FEF348323839683858390878783CD
:1008400010820895FC017383628391878087461725
:100850005707A0F0421B530B84859585481759070D
:1008600010F081E00895BF016E5F7F4F80919A0183
:1008700090919B010E94E00380E008954217530786
:1008800018F46217730758F4BF016E5F7F4F8091B1
:100890009C0190919D010E94E00380E0089581E019
:1008A0000895DC01E0919C01F0919D0191E080812F
:1008B000811190E09C93911106C00580F681E02D96
:1008C00080819181089590E080E00895EF92FF92F9
:1008D0000F931F93CF93DF93EC018B017A0108C034
:1008E0008C859D85080F191FE889F989CE01099526
:1008F0006C857D85600F711F9801A701CE010E9454
:1009000022048111EDCFDF91CF911F910F91FF90C4
:10091000EF900895EF92FF920F931F93CF93DF9381
:100920008C017B01E0919C01F0919D010580F68195
:10093000E02DC681D781CE0102960E94B9038A8933
:1009400082FD0DC08E7F8A8BE889F989CE010995D9
:10095000DF91CF911F910F91FF90EF900895A70124
:10096000B801CE010E946604EFCF09C00580F68170
:10097000E02D6FEF7FEF808191810E948A04E091EA
:100980009C01F0919D0180818111F0CF80919A01AD
:1009900090919B0190939D0180939C01F0939B010A
:1009A000E0939A010895BF92CF92DF92EF92FF9267
:1009B0000F931F93CF93DF93EC01B62E0091BB01F1
:1009C0001091BC01E090B901F090BA01C090B7015C
:1009D000D090B8018091E2019091E30102960E94CB
:1009E000B903CF3FDC0711F1C00FD11FE091E20145
:1009F000F091E301D383C283C017D10708F44CC040
:100A00006091E2017091E3016E5F7F4FC7010E9428
:100A1000E0038091B4019091B501C817D90708F09F
:100A200044C0D093B501C093B4013FC0BB20E1F2F4
:100A3000EDE8F1E0A181B281C091E201D091E30142
:100A4000BD83AC83C091E201D091E30114968D91F6
:100A50009C9115979F838E838091E2019091E30191
:100A60001496CD91DC91159702969B838A83809191
:100A7000E2019091E301029615969C938E93149750
:100A8000A091E201B091E3011B96FC93EE931A97BB
:100A900080818F5F808309C06091E2017091E301E2
:100AA0006E5F7F4FC6010E94E003DF91CF911F91DF
:100AB0000F91FF90EF90DF90CF90BF9008958091BD
:100AC000E2019091E301009721F0FC0122A52F5F44
:100AD00022A708950F931F93CF93DF93EC01892BE7
:100AE00051F089A5861708F4862F9E89981719F06A
:100AF0002AA5213029F0DF91CF911F910F91089500
:100B00008E8B2C853D85332334F024E030E0281B88
:100B100031093D872C874A855B85892F90E09C01B0
:100B2000220F331F220F331F220F331F820F931FF9
:100B300083549E4F48175907F1F68E010E5F1F4FE1
:100B4000C8010E94B9038E899091E101981710F4B1
:100B50008093E10190E0FC01EE0FFF1FEE0FFF1FFD
:100B6000EE0FFF1FE80FF91FE354FE4F0180F281E3
:100B7000E02DFD83EC83848195819F838E83A48106
:100B8000B58113961C930E93129715830483EE89F7
:100B90008E2F90E0FC01EE0FFF1FEE0FFF1FEE0FF8
:100BA000FF1FE80FF91FE354FE4FFB87EA878081A0
:100BB0008F5F8083A0CF0F931F93CF93DF93EC01C0
:100BC000892B09F456C08AA581508AA72E8999A538
:100BD000291709F450C0882331F080E0DF91CF91CC
:100BE0001F910F9108958E010E5F1F4FC8010E9443
:100BF000B90389A58E8B24E030E0281B31093D879D
:100C00002C879091E101981710F48093E10190E016
:100C1000FC01EE0FFF1FEE0FFF1FEE0FFF1FE80F8F
:100C2000F91FE354FE4F0180F281E02DFD83EC8338
:100C3000848195819F838E83A481B58113961C93B3
:100C40000E93129715830483EE898E2F90E0FC019A
:100C5000EE0FFF1FEE0FFF1FEE0FFF1FE80FF91F34
:100C6000E354FE4FFB87EA8780818F5F808381E0BA
:100C7000B5CF80E0B3CF80E0B1CF0F931F93CF9378
:100C8000DF93EC01892B09F488C08E89A091E201E1
:100C9000B091E30156969C91891708F072C02C859B
:100CA0003D85332364F0A091E201B091E3015696B3
:100CB0009C9124E030E0291B31093D872C874A852F
:100CC0005B8590E09C01220F331F220F331F220F00
:100CD000331F820F931F83549E4F4817590769F0A3
:100CE000A091E201B091E30156968C918E8B81E048
:100CF000DF91CF911F910F9108958E010E5F1F4FCD
:100D0000C8010E94B903E091E201F091E3018689F4
:100D10008E8B9091E101981710F48093E10190E09F
:100D2000FC01EE0FFF1FEE0FFF1FEE0FFF1FE80F7E
:100D3000F91FE354FE4F0180F281E02DFD83EC8327
:100D4000848195819F838E83A481B58113961C93A2
:100D50000E93129715830483EE898E2F90E0FC0189
:100D6000EE0FFF1FEE0FFF1FEE0FFF1FE80FF91F23
:100D7000E354FE4FFB87EA8780818F5F808381E0A9
:100D8000B7CF99A5E091E201F091E3018689981728
:100D900010F481E0ADCF80E0ABCF80E0A9CFCF935E
:100DA000C0E010C02C2F30E0C901880F991F880FB8
:100DB000991F880F991F820F931F83549E4F0E9483
:100DC0001404CF5FC43070F389E791E00E941404EB
:100DD00080E791E00E94140487E691E00E941404E9
:100DE00084E891E00E9414048DE891E00E941404CC
:100DF00089E791E09093BA018093B90180E791E08F
:100E00009093B8018093B701CF91089581E08093CA
:100E1000E40108952091B601FC0120832091BB01DB
:100E20003091BC013283218308951F93CF93DF93C8
:100E30000FB6F8940F924091BB015091BC01DC01B8
:100E40001196ED91FC91DA01AE1BBF0BEB012881ED
:100E500039812F3F320721F1EC011881C091B60191
:100E60001C1719F04E175F0768F4A217B30778F044
:100E7000EB011982188281E00F900FBEDF91CF91B4
:100E80001F910895FB011182108281E0F5CF2A1B8A
:100E90003B0BDB012D933C930E940A0780E0ECCFD3
:100EA00080E0EACFCF93DF93DC011596ED91FC91C2
:100EB0000680F781E02DA489B589C685D78580890C
:100EC00091899D838C83C089D189868597859B83F1
:100ED0008A839F01245F3F4F11968D919C911297B9
:100EE0008217930709F471C0158A148A8C91815076
:100EF0008C938091E501811176C0A285B385C48170
:100F0000D581868197819D838C83C681D781848199
:100F100095819B838A839F012E5F3F4F11968D9110
:100F20009C9112978217930709F456C01386128674
:100F30008C9181508C9386899091E101981710F4DF
:100F40008093E10190E0DC01AA0FBB1FAA0FBB1F39
:100F5000AA0FBB1FA80FB91FA354BE4F11960D9027
:100F6000BC91A02DB583A48314968D919C91159767
:100F7000978386831496CD91DC9115973B832A83C2
:100F800015963C932E931497A6898A2F90E0DC0146
:100F9000AA0FBB1FAA0FBB1FAA0FBB1FA80FB91F09
:100FA000A354BE4FB387A2878C918F5F8C93968991
:100FB000E091E201F091E3018689891780F581E0F3
:100FC0008093E401DF91CF910895808991891296F1
:100FD0009C938E93119788CF8681978112969C93CC
:100FE0008E931197A3CF47E651E0DA011196CD9188
:100FF000DC91D787C6878C819D81918B808B8C817A
:101000009D81DC0113963C932E9312973D832C8394
:10101000558B448BDA018C918F5F8C93C8CF80E025
:10102000D1CF0F931F93CF93DF93FC018B01A1814D
:10103000B2818091E2019091E301EC01BF87AE871C
:101040008091E2019091E30114962D913C911597C6
:10105000EC01398B288B2091E2013091E301149649
:101060008D919C911597245F3F4FEC013B832A8320
:101070002091E2013091E301245F3F4F15963C93AC
:101080002E931497A091E201B091E3015596FC9341
:10109000EE93549790819F5F9083442311F00FEF5C
:1010A0001FEF642FC8010E94D304DF91CF911F91DD
:1010B0000F910895CF93DF93EB016091E20170915E
:1010C000E301645F7F4F0E94E00361E0CE010E9474
:1010D000D304DF91CF9108950FB6F8940F928091C9
:1010E000BB019091BC010F900FBE08950F931F9309
:1010F000CF93DF938C010E946C08EC0180919801E2
:1011000090919901C817D90760F0F8011082D09327
:101110009901C0939801CE01DF91CF911F910F915A
:1011200008950E94B50481E0F8018083F0CF80919A
:10113000E5018F5F8093E50108950FB6F8940F9253
:10114000FC01228D838D281721F080E00F900FBEC7
:10115000089581E0FBCF0FB6F8940F92FC01828DC9
:10116000882321F080E00F900FBE089581E0FBCF2F
:101170001F93CF93DF93EC010FB6F8940F921E8D5F
:1011800003C00E9406071150111654F48989882360
:1011900039F0CE0141960E9452078823A1F3F1CF86
:1011A0008FEF8E8F0F900FBE0FB6F8940F921D8D9C
:1011B00003C00E9406071150111654F48885882335
:1011C00039F0CE0108960E9452078823A1F3F1CF8F
:1011D0008FEF8D8F0F900FBEDF91CF911F910895EC
:1011E000CF93DF93EC010FB6F8940F928D8D8F3F64
:1011F00071F08E8D8F3F69F00F900FBE8A8D88231E
:1012000051F0CE010E94B808DF91CF9108951D8E54
:10121000F0CF1E8EF1CFCE0141960E941108F1CF82
:10122000DC0151962C915197222339F05696ED917D
:10123000FC91908184E0891B089580E008950895D1
:101240000E941B020895DF92EF92FF920F931F936B
:10125000CF93DF93CDB7DEB7A1970FB6F894DEBF7B
:101260000FBECDBF7C01CB01BA01D22E19A221E065
:101270002D1520F48E010F5D1F4F0EC00F2EFAE0CA
:10128000DF2EF02DF7CFE95CD801EE938D016115CB
:1012900071058105910579F02D2D30E050E040E099
:1012A0000E94CA16E62F622F732F842F952FEA30E3
:1012B00054F7E05DE9CF1097F9F0FD0101900020AF
:1012C000E9F73197AF014A1B5B0BD701ED91FC9118
:1012D0000280F381E02DB801C7010995A1960FB6F0
:1012E000F894DEBF0FBECDBFDF91CF911F910F915C
:1012F000FF90EF90DF90089590E080E0EFCF211510
:10130000310549F4DC01ED91FC910190F081E02D73
:10131000642F099508950E94230908959A01462F84
:1013200050E070E060E00E947F090895DC01ED91DB
:10133000FC910280F381E02D42E050E065E271E033
:10134000099508956115710581F0FB010190002058
:10135000E9F73197AF01461B570BDC01ED91FC918A
:101360000280F381E02D0995089590E080E00895D2
:101370000F920FB6F8940F921F9211242F923F9262
:101380004F925F926F927F928F929F92AF92BF9295
:10139000CF92DF92EF92FF920F931F932F933F9381
:1013A0004F935F936F937F938F939F93AF93BF936D
:1013B000CF93DF93EF93FF93A091E201B091E3010C
:1013C0000DB60D920EB60D9213BE8091E5018111FE
:1013D00011C12091BB013091BC012F5F3F4F309371
:1013E000BC012093BB012115310581F58091B90124
:1013F0009091BA014091B7015091B8015093BA0150
:101400004093B9019093B8018093B7018091B601E0
:101410008F5F8093B601E091B901F091BA018081AC
:10142000811107C08FEF9FEF9093B5018093B401B6
:101430000DC0E091B901F091BA010580F681E02D6F
:10144000808191819093B5018093B4018091B40122
:101450009091B5012817390720F440E0B1C041E070
:1014600001C040E0E091B901F091BA0180818111A1
:1014700007C08FEF9FEF9093B5018093B401A0C098
:10148000E091B901F091BA010580F681E02D068066
:10149000F781E02D828193812817390728F49093F2
:1014A000B5018093B4018CC0A285B385C481D58178
:1014B000668177817D836C83C681D78164817581E4
:1014C0007B836A83BF016E5F7F4F11968D919C91E4
:1014D00012978617970731F48681978112969C930D
:1014E0008E931197138612868C9181508C93A489C8
:1014F000B589109701F1C685D785808991899D832B
:101500008C83C089D189868597859B838A83119630
:10151000CD91DC911297CF010C96C817D90731F401
:101520008089918912969C938E931197158A148ABB
:101530008C9181508C9386899091E101981710F4D9
:101540008093E10190E0DC01AA0FBB1FAA0FBB1F33
:10155000AA0FBB1FA80FB91FA354BE4F11960D9021
:10156000BC91A02DB583A48314968D919C91159761
:10157000978386831496CD91DC9115977B836A833C
:1015800015967C936E931497868990E0DC01AA0FE0
:10159000BB1FAA0FBB1FAA0FBB1FA80FB91FA354C5
:1015A000BE4FB387A2878C918F5F8C939689E09111
:1015B000E201F091E3018689891708F450CF52CFF8
:1015C000E091E201F091E301868990E0FC01EE0FE9
:1015D000FF1FEE0FFF1FEE0FFF1FE80FF91FE35471
:1015E000FE4F8081823008F041E08091E40181115A
:1015F0000CC00CC08091B2019091B3010196909300
:10160000B3018093B20140E001C041E0442309F4FA
:1016100089C08091E501882321F081E08093E40175
:1016200081C01092E401A091E201B091E301E09148
:10163000E201F091E3012D913C918789908D821711
:101640009307D8F08091E2019091E3018091E2014B
:101650009091E30184B1806284B985B1806285B9DB
:101660002FEF87EA91E6215080409040E1F700C0DB
:10167000000083B1806283B9F3CF4091E10101C0E2
:101680004150842F90E0FC01EE0FFF1FEE0FFF1F73
:10169000EE0FFF1FE80FF91FE354FE4F20812223B6
:1016A00079F39C01220F331F220F331F220F331FA8
:1016B000280F391FF901E354FE4FA181B281129620
:1016C0006D917C917283618320543E4F6217730742
:1016D00079F4FC01EE0FFF1FEE0FFF1FEE0FFF1F4F
:1016E000E80FF91FE354FE4F2581368132832183B1
:1016F000FC01EE0FFF1FEE0FFF1FEE0FFF1FE80FA5
:10170000F91FE354FE4F0180F281E02D868197811D
:101710009093E3018093E2014093E1018091E20123
:101720009091E301A091E201B091E301CD91CDBF91
:10173000DD91DEBFFF91EF91DF91CF91BF91AF912E
:101740009F918F917F916F915F914F913F912F91D9
:101750001F910F91FF90EF90DF90CF90BF90AF90CF
:101760009F908F907F906F905F904F903F902F90C1
:101770001F900F900FBE0F9008950F920FB6F89420
:101780000F921F9211242F923F924F925F926F926D
:101790007F928F929F92AF92BF92CF92DF92EF9201
:1017A000FF920F931F932F933F934F935F936F93EA
:1017B0007F938F939F93AF93BF93CF93DF93EF93D9
:1017C000FF93A091E201B091E3010DB60D920EB628
:1017D0000D928091E501882321F081E08093E4015E
:1017E00081C01092E401A091E201B091E301E09187
:1017F000E201F091E3012D913C918789908D821750
:101800009307D8F08091E2019091E3018091E20189
:101810009091E30184B1806284B985B1806285B919
:101820002FEF87EA91E6215080409040E1F700C019
:10183000000083B1806283B9F3CF4091E10101C020
:101840004150842F90E0FC01EE0FFF1FEE0FFF1FB1
:10185000EE0FFF1FE80FF91FE354FE4F20812223F4
:1018600079F39C01220F331F220F331F220F331FE6
:10187000280F391FF901E354FE4FA181B28112965E
:101880006D917C917283618320543E4F6217730780
:1018900079F4FC01EE0FFF1FEE0FFF1FEE0FFF1F8D
:1018A000E80FF91FE354FE4F2581368132832183EF
:1018B000FC01EE0FFF1FEE0FFF1FEE0FFF1FE80FE3
:1018C000F91FE354FE4F0180F281E02D868197815C
:1018D0009093E3018093E2014093E1018091E20162
:1018E0009091E301A091E201B091E301CD91CDBFD0
:1018F000DD91DEBFFF91EF91DF91CF91BF91AF916D
:101900009F918F917F916F915F914F913F912F9117
:101910001F910F91FF90EF90DF90CF90BF90AF900D
:101920009F908F907F906F905F904F903F902F90FF
:101930001F900F900FBE0F900895CF93DF930FB6B7
:10194000F8940F928091E50181508093E501809198
:10195000E5018111CDC080918301882309F4C9C0BC
:10196000F0E0E0E080916701882309F49AC0E091FB
:101970006C01F0916D010680F781E02DA489B58995
:10198000C685D785808991899D838C83C089D189BB
:10199000868597859B838A83CF010C9611962D911E
:1019A0003C9112972817390709F46DC0158A148ADB
:1019B0008C9181508C93A285B385C481D581868119
:1019C00097819D838C83C681D781848195819B83F8
:1019D0008A839F012E5F3F4F11968D919C911297A4
:1019E0008217930709F456C0138612868C91815092
:1019F0008C9386899091E101981710F48093E1010E
:101A000090E0DC01AA0FBB1FAA0FBB1FAA0FBB1FD0
:101A1000A80FB91FA354BE4F11960D90BC91A02DD5
:101A2000B583A48314968D919C9115979783868393
:101A30001496CD91DC9115973B832A8315963C93A0
:101A40002E931497A6898A2F90E0DC01AA0FBB1F62
:101A5000AA0FBB1FAA0FBB1FA80FB91FA354BE4FCD
:101A6000B387A2878C918F5F8C939689A091E201B6
:101A7000B091E30156968C91891708F073CF81E0FD
:101A80008093E4016FCF8089918912969C938E9305
:101A900011978CCF8681978112969C938E93119784
:101AA000A3CFEF2B11F00E943E02C091B201D09162
:101AB000B301209741F48091E401811111C080E0CD
:101AC00018C0219741F00E945A028823D1F381E087
:101AD0008093E401F6CF1092B3011092B201EBCFE4
:101AE0008091E2019091E3010E94BD0B81E001C071
:101AF00080E00F900FBEDF91CF910895CF92DF92DB
:101B0000EF92FF921F93CF93DF931F92CDB7DEB773
:101B10007C01162F0E949708CE0101960E9476083C
:101B20006C018981811130C0111103C0CE14DF0412
:101B300008F5112341F0E0919A01F0919B0111E029
:101B40008081811110E0B7016C197D09412F8091CE
:101B5000B0019091B1010E94F0080E949D0C882371
:101B600081F00F90DF91CF911F91FF90EF90DF9068
:101B7000CF9008950E949D0CB601C7010E948A046F
:101B8000F0CF0E94BD0BEDCF0E949D0CEACFCF930A
:101B9000DF93EC01892B51F00E94970860E0CE01A1
:101BA0000E94D3040E949D0C811102C00E94BD0BB3
:101BB000DF91CF910895CF93DF93EC010FB6F894A6
:101BC0000F92809183018F5F809383018091E20166
:101BD0009091E301892B89F080916601811116C0F3
:101BE000E091E201F091E30196898E89891770F006
:101BF000D093E301C093E20109C0D093E301C09305
:101C0000E20180918301813009F44FC0809163012A
:101C10008F5F809363018E899091E101981710F492
:101C20008093E10190E0FC01EE0FFF1FEE0FFF1F1C
:101C3000EE0FFF1FE80FF91FE354FE4F0180F28102
:101C4000E02DFD83EC83848195819F838E83A48125
:101C5000B581CE01029613969C938E93129795832D
:101C60008483EE898E2F90E0FC01EE0FFF1FEE0FB4
:101C7000FF1FEE0FFF1FE80FF91FE354FE4FFB8716
:101C8000EA8780818F5F80830F900FBE809166010D
:101C9000882341F0E091E201F091E30196898E8979
:101CA000981730F0DF91CF9108950E94CF06AECF04
:101CB0000E94BD0BF7CFEF92FF920F931F93CF932C
:101CC000DF9300D000D01F92CDB7DEB78C017D83AB
:101CD0006C83E12CF12C54C08150828F80819181E2
:101CE000892BA9F0F8018085811117C00F900FBED4
:101CF000EE24E3948E2D0F900F900F900F900F9085
:101D0000DF91CF911F910F91FF90EF9008950E9466
:101D10005F05F80195838483E5CFC80108960E948A
:101D20005207882319F30E94BD0BE0CF0F900FBE1E
:101D3000E12CE0CFCE0101960E940A07FF24F39424
:101D40002EC0158E38C0168E3BC00FB6F8940F9279
:101D5000848195810E943D06E82E0F900FBE47C0FA
:101D6000C8010E94B8080E949D0C0AC0C8010E94C8
:101D7000B8080E949D0CC8010E94AB08811147C0A1
:101D80000FB6F8940F92F801828D8111A5CF8C8146
:101D90009D81892B09F4CACFFF2009F4CBCF0F9086
:101DA0000FBE0E9497080FB6F8940F92F801858D28
:101DB0008F3F09F4C6CFF801868D8F3F09F4C3CF5A
:101DC0000F900FBEBE016C5F7F4FCE0101960E9447
:101DD00015078111CBCFC8010E94AB08882309F4F5
:101DE000BFCFF80180819181892B09F4AECF6C813E
:101DF0007D81C80141960E945A08C8010E94B80816
:101E00000E949D0C8111BCCF0E94BD0BB9CFEE206A
:101E100009F470CF0FB6F8940F92C8010E94100910
:101E2000682FF801848195810E946A050F900FBE8A
:101E3000E12C60CFCF93DF93009709F447C0FC01FA
:101E4000238D222309F444C0EC010FB6F8940F92BD
:101E500020813181838D90E0448D50E0849FF0019A
:101E6000859FF00D949FF00D1124E20FF31FFD8369
:101E7000EC831A8E3B832A830197849FF001859F10
:101E8000F00D949FF00D11242E0F3F1F3F832E83E2
:101E90008FEF8D8F8E8F611110C08885811104C0E6
:101EA0000F900FBE81E015C0CE0108960E94520728
:101EB0008823B1F30E94BD0BF3CFCE0108960E9498
:101EC0001404CE0141960E941404EACF80E001C0C0
:101ED00080E0DF91CF9108950F931F93F80166235F
:101EE00059F051834083838F648F61E0CF010E945A
:101EF0001A0F1F910F91089511830083F4CF0E9450
:101F000037022FEF80E792E0215080409040E1F7C8
:101F100000C000000E943302F4CFCF93DF930097FC
:101F200041F0EC010E949708CE010E9441160E94E8
:101F30009D0CDF91CF910895CF93DF93EC018F89B2
:101F4000988D0E948D0FCE010E948D0FDF91CF9151
:101F50000895CF93DF931CC00FB6F8940F92E091D1
:101F60008901F0918A01C681D781CE0102960E9433
:101F7000B903809183018150809383018091820114
:101F80008150809382010F900FBECE010E949C0F62
:101F9000809182018111E0CFDF91CF91089502C03D
:101FA0000E9420090E94A90F8091BD018230C0F3D8
:101FB0000E94BD0BF5CFCF93DF93EC010E949708F1
:101FC000CE010E94A515EC010E949D0C209721F0E6
:101FD000CE01DF91CF9108950E947F0FDF92EF92A3
:101FE000FF920F931F93CF93DF93882319F1869F5E
:101FF00090011124213E9FEF3907F8F4D42ED62FFB
:10200000C82FC9014F960E94DB0F7C01009749F051
:102010008C012D2DAC01415E5F4F6D2F8C2F0E94E6
:102020006C0FC701DF91CF911F910F91FF90EF903F
:10203000DF900895F12CE12CF4CFF12CE12CF1CFBD
:102040000FB6F8940F928091B0019091B101892B55
:1020500019F00F900FBE089587EA91E00E941404D2
:102060008EE991E00E94140487EA91E090939D012B
:1020700080939C018EE991E090939B0180939A015B
:1020800040E065E08AE00E94EE0F9093B1018093FA
:10209000B001DFCF4F925F926F927F928F929F92AB
:1020A000AF92BF92CF92DF92EF92FF920F93CF93B6
:1020B000DF932C015B014A013901E60165EA70E01A
:1020C0008F89988D0E94FB168F89988D21E0821A46
:1020D0009108880E991EA114B104A1F020E02031CE
:1020E00080F4822F90E0F501E80FF91F30818C0F0A
:1020F0009D1FDC0159963C938081882311F02F5F4E
:10210000EECF18A6043008F003E00E8B09A7CE012D
:1021100002960E941004CE010C960E941004D987EA
:10212000C88784E090E0801B91099D878C87DB8BBA
:10213000CA8BA301B201C4010E94A80399838883BA
:10214000E114F10419F0F701D183C083DF91CF913D
:102150000F91FF90EF90DF90CF90BF90AF909F9046
:102160008F907F906F905F904F9008952F923F9245
:102170004F925F926F927F928F929F92AF92BF9297
:10218000CF92DF92EF92FF920F93CF93DF934C01A8
:102190001B012A013901CA010E94DB0F6C01892B46
:1021A00081F180E390E00E94DB0FEC01892B29F1A3
:1021B00080E3FE0111928A95E9F7D88ECF8A2097A5
:1021C00049F0B12CA12C6E019301A201B101C4010F
:1021D0000E944A10CE01DF91CF910F91FF90EF90B6
:1021E000DF90CF90BF90AF909F908F907F906F9037
:1021F0005F904F903F902F900895C6010E948D0FE1
:10220000DECFD0E0C0E0E6CFEF92FF920F930E94C6
:10221000B610009739F00E94DB0D81E00F91FF901E
:10222000EF9008958FEFFACFEF92FF920F930E94F5
:1022300020108091B0019091B101892BA9F00F2E4F
:10224000F6E9EF2EF1E0FF2EF02D03E030E020E084
:102250004CE550E068E271E086EF92E10E940411E3
:102260000F91FF90EF90089580E0FACFEF92FF92E8
:102270000F931F93CF93DF93CDB7DEB760970FB661
:10228000F894DEBF0FBECDBF80E080319CF4E82F14
:10229000082E000CFF0BDF01A05DBE4F9C9121E0DA
:1022A00030E02C0F3D1FE20FF31F9083992311F0B4
:1022B0008F5FEBCF10E081E011166CF460960FB6E3
:1022C000F894DEBF0FBECDBFDF91CF911F910F916C
:1022D000FF90EF900895E12EEE0CFF08C7018C5996
:1022E0009E4F7C0100E030E020E040EC50E0BE0179
:1022F0006F5F7F4F8FEC9FE00E9404118823F1F203
:102300001F5FDACF0E943611813029F0813031F021
:102310008091000108950E941411F8CFF8948FEF76
:102320009FEF9093B5018093B40181E080936601A3
:102330001092BC011092BB010E947903E9CFFC010D
:10234000448D4423A9F050E026813781240F351FA6
:1023500037832683848195812817390720F080816F
:10236000918197838683CB01668177810E94F216E3
:102370000895CF92DF92EF92FF920F931F93CF9326
:10238000DF9300D000D01F92CDB7DEB78C016B0178
:102390005D834C83E12C43C0B601C8010E949F11AC
:1023A000FA94F801F28E8085811111C00F900FBE52
:1023B00081E00F900F900F900F900F90DF91CF91D1
:1023C0001F910F91FF90EF90DF90CF900895C8017B
:1023D00008960E945207882349F30E94BD0BE6CF5E
:1023E0000F900FBE80E0E5CFCE0101960E940A0754
:1023F000EE24E39421C0158E2AC0168E2CC0C8018D
:102400000E94B8080E949D0C0AC0C8010E94B8082A
:102410000E949D0CC8010E94AB0881113DC00FB6FF
:10242000F8940F92F801F28CF110B6CF8C819D8157
:10243000892BB1F2EE20C1F20F900FBE0E949708D7
:102440000FB6F8940F92F801858D8F3FA1F2F80135
:10245000868D8F3F91F20F900FBEBE016C5F7F4F54
:10246000CE0101960E9415078111CFCFC8010E94AD
:10247000AB08882309F4C3CF6C817D81C8014196E4
:102480000E945A08C8010E94B8080E949D0C811140
:10249000C6CF0E94BD0BC3CF80E08BCFEF92FF92DF
:1024A0000F931F93CF93DF9300D000D000D0CDB710
:1024B000DEB785E0FE013196DF011D928A95E9F7CE
:1024C00050E040E0BE016F5F7F4F8091B00190917E
:1024D000B1010E94B911882309F47BC08981882346
:1024E0007CF30C811D81F80182859385892B21F075
:1024F000C80102960E94B903CE0106960E94760892
:102500007C01E981E150E930D8F60E2E000CFF0B7A
:10251000E457FD4E0C94EC1695129512C312C81296
:10252000DE1295129512C312C812D80152968C91E0
:102530005297816052968C9352972A813B811C96C8
:102540006D917C91620F731FA701C8010E94220444
:10255000882309F4B5CFF801828982FD09C08E7FF6
:10256000828BD8015096ED91FC91C8010995A8CFB6
:102570006A817B8184859585680F791FA701C801D1
:102580000E946604EECFF80182898E7F828B98CFFD
:10259000D80152968C915297816052968C935297A3
:1025A0006A817B811D967C936E931C976E0D7F1DB7
:1025B0009701A701C8010E94220482CFF8018289F5
:1025C00081FF03C08E7F828B7BCFC8010E948D0F5D
:1025D00077CF26960FB6F894DEBF0FBECDBFDF9142
:1025E000CF911F910F91FF90EF900895CF93DF93BC
:1025F0001F92CDB7DEB7CE0101960E9451046981CA
:102600000E947E0D0E944E12F6CF0F931F93CF9320
:10261000DF93EC01042F1A8D4C8D411113C088817A
:102620009981892B41F080E01F5F1A8FDF91CF9154
:102630001F910F9108958C819D810E94DB051D8261
:102640001C82F2CF011118C050E08A819B810E9448
:10265000F2168C8D2A813B81820F932F911D9B83D3
:102660008A832C813D818217930750F1888199815B
:102670009B838A8380E0D8CF50E08E819F810E9427
:10268000F2168C8D90E09195819591092E813F8174
:10269000280F391F3F832E8348815981241735071E
:1026A00030F42C813D81820F931F9F838E830230F3
:1026B00011F080E0B9CF112329F0115080E0B4CFA0
:1026C00080E0B2CF80E0B0CFCF92DF92EF92FF9266
:1026D0000F931F93CF93DF9300D000D01F92CDB7FD
:1026E000DEB78C017B015D834C83C22ED12C3CC0B4
:1026F0004C2DB701C8010E940513F8019189911171
:1027000013C081111AC00F900FBE81E00F900F907F
:102710000F900F900F90DF91CF911F910F91FF902D
:10272000EF90DF90CF900895C80141960E94520724
:10273000882349F30E94BD0BE6CF0E94BD0BE3CF77
:102740000F900FBE80E0E2CFCE0101960E940A07F3
:10275000DD24D3941CC0158E25C0168E27C0C80159
:102760000E94B8080E949D0C0FB6F8940F92F801D1
:10277000928D838D981708F4BBCFF2E0CF1609F441
:10278000B7CF8C819D81892BD9F2DD20E9F20F90A2
:102790000FBE0E9497080FB6F8940F92F801858D2E
:1027A0008F3FC9F2F801868D8F3FB9F20F900FBEAF
:1027B000BE016C5F7F4FCE0101960E94150781110B
:1027C00016C0C8010E949D08882309F4C8CF6C81F7
:1027D0007D81C80108960E945A08C8010E94B80865
:1027E0000E949D0C8111C0CF0E94BD0BBDCFC801BE
:1027F0000E94B8080E949D0C80E088CFEF92FF9263
:102800000F93CF93DF9326E040E855E260E070E05D
:1028100086EE91E00E94340143E060E081E00E9496
:10282000EE0FCDE5D1E09983888343E060E081E05D
:102830000E94EE0F9B838A8343E060E081E00E9468
:10284000EE0F9D838C83F12CE12C01E021E030E040
:1028500048E750E065E371E084E694E10E940411EA
:1028600022E030E048E750E068E371E084E694E17C
:102870000E94041123E030E048E750E06BE371E090
:1028800084E694E10E94041120E050E040E070E012
:1028900060E0888199810E946413DF91CF910F914C
:1028A000FF90EF90089520910501309106018FEF80
:1028B00098E0821B930B90930201809301010E9488
:1028C000FE130E9482110895C82FD82F38C06EE3DE
:1028D00071E086EE91E00E94A2094EC062E471E0D0
:1028E00086EE91E00E94A20947C068E471E086EE9E
:1028F00091E00E94A20940C088E190E00E94C70DCB
:1029000080915C018F5F80935C0180915C018C30D1
:1029100008F055C0E0915C01F0E0E95FFE4FE08116
:10292000E150FF0BEE0FFF1FE35AFE4F20E050E097
:1029300040E070E060E0808191810E9464138C2F00
:102940008150990BFC01EE0FFF1FE35AFE4F6FEF12
:102950007FEF808191810E945B0E80915C018823D2
:1029600009F4B5CF80915C01833009F4B7CF809131
:102970005C01873009F4B9CF6EE471E086EE91E036
:102980000E94A2094AE050E06D2F86EE91E00E947D
:102990008E0980915C01823009F4AECF80915C0198
:1029A000863009F4A9CF80915C018B3009F4A4CF63
:1029B00065E571E086EE91E00E94A2099DCF10923C
:1029C0005C0186EE91E00E94960986EE91E00E94FD
:1029D0009609A0CF1F920F920FB60F9211242F933A
:1029E0003F938F939F93AF93BF9380918802909171
:1029F0008902A0918A02B0918B023091870223E074
:102A0000230F2D3758F50196A11DB11D2093870284
:102A10008093880290938902A0938A02B0938B02DC
:102A20008091830290918402A0918502B0918602E8
:102A30000196A11DB11D8093830290938402A093FF
:102A40008502B0938602BF91AF919F918F913F9184
:102A50002F910F900FBE0F901F90189526E8230F0F
:102A60000296A11DB11DD2CF0E945F000E94531497
:102A70000E94FE130E941B02FDCF6FEF7FEF81E0EB
:102A800090E00E94B70008951F920F920FB60F9228
:102A900011242F933F934F935F936F937F938F9363
:102AA0009F93AF93BF93EF93FF9386EE91E00E94C5
:102AB0008C01FF91EF91BF91AF919F918F917F9189
:102AC0006F915F914F913F912F910F900FBE0F909B
:102AD0001F9018951F920F920FB60F9211242F93EB
:102AE0008F939F93AF93BF93EF93FF93E091F60182
:102AF000F091F701808182FD14C0E6EEF1E0A68935
:102B0000B7892C91818D8F5F8F73928D891771F0AA
:102B1000DF01E18DF0E0EA51FE4F258F59968C934D
:102B200005C0E091FC01F091FD018081FF91EF91E2
:102B3000BF91AF919F918F912F910F900FBE0F90EA
:102B40001F9018950E94B80918950F931F93CF9363
:102B5000DF938230910510F482E090E0E0918E02E4
:102B6000F0918F0230E020E0B0E0A0E0309799F4DF
:102B70002115310509F44AC0281B390B24303105D1
:102B8000D8F58A819B816115710589F1FB019383D9
:102B90008283FE0111C04081518102811381481757
:102BA0005907E0F04817590799F4109761F0129609
:102BB0000C93129713961C933296CF01DF91CF910D
:102BC0001F910F91089500938E0210938F02F4CFFE
:102BD0002115310551F04217530738F0A901DB01E7
:102BE0009A01BD01DF01F801C1CFEF01F9CF909348
:102BF0008F0280938E02CDCFFE01E20FF31F8193EF
:102C000091932250310939832883D7CF20918C02A8
:102C100030918D02232B41F4209103013091040166
:102C200030938D0220938C0220910101309102019A
:102C30002115310541F42DB73EB740910501509162
:102C40000601241B350BE0918C02F0918D02E217F6
:102C5000F307A0F42E1B3F0B2817390778F0AC01BF
:102C60004E5F5F4F2417350748F04E0F5F1F50939C
:102C70008D0240938C02819391939FCFF0E0E0E02E
:102C80009CCFCF93DF930097E9F0FC01329713823A
:102C90001282A0918E02B0918F02ED0130E020E00F
:102CA0001097A1F420813181820F931F20918C0213
:102CB00030918D022817390709F061C0F0938D0219
:102CC000E0938C02DF91CF910895EA01CE17DF07E0
:102CD000E8F54A815B819E0141155105B1F7E90193
:102CE000FB83EA8349915991C40FD51FEC17FD0767
:102CF00061F4808191810296840F951FE901998387
:102D00008883828193819B838A83F0E0E0E012963E
:102D10008D919C9113970097B9F52D913C91119746
:102D2000CD010296820F931F20918C0230918D026B
:102D30002817390739F6309751F510928F02109203
:102D40008E02B0938D02A0938C02BCCFD383C2833A
:102D500040815181840F951FC817D90761F44E5FD8
:102D60005F4F88819981480F591F518340838A8121
:102D70009B81938382832115310509F0B0CFF093B5
:102D80008F02E0938E029ECFFD01DC01C0CF138243
:102D90001282D7CFA1E21A2EAA1BBB1BFD010DC0C8
:102DA000AA1FBB1FEE1FFF1FA217B307E407F507FB
:102DB00020F0A21BB30BE40BF50B661F771F881FD7
:102DC000991F1A9469F760957095809590959B016D
:102DD000AC01BD01CF010895EE0FFF1F0590F491E6
:102DE000E02D0994FB01DC0102C001900D924150DD
:102DF0005040D8F70895DC0101C06D934150504018
:082E0000E0F70895F894FFCFFC
:102E08000300009002800001030202020301030391
:102E180003010200000000AE018700EA00F8011D6E
:102E280001FB000F010D0A00546D722053766300F8
:102E380049444C4500543100543200543300412E6B
:102E480020000D0A422E20000D0A432E2000546156
:0A2E58007265612000202D200000AB
:00000001FF
