:100000000C9434000C943E000C943E000C943E0082
:100010000C943E000C943E000C943E000C943E0068
:100020000C943E000C943E000C943E000C943E0058
:100030000C943E000C943E000C943E000C943E0048
:100040000C943E000C943E000C943E000C943E0038
:100050000C943E000C943E000C943E000C943E0028
:100060000C943E000C943E0011241FBECFEFD8E04C
:10007000DEBFCDBF0E9467000C943B020C940000D1
:10008000CF93DF93CDB7DEB72AE230E08AE290E08B
:10009000F9012081FC0120832BE230E08BE290E02B
:1000A000F9012081FC01208324E230E084E290E029
:1000B000F9012081FC01208325E230E085E290E017
:1000C000F9012081FC012083DF91CF910895CF9326
:1000D000DF93CDB7DEB72F970FB6F894DEBF0FBE14
:1000E000CDBF0E94400019828981882301F589E2F1
:1000F00090E0FC018081882F90E08470992731E0A6
:10010000892B09F030E089E290E0FC018081882FA2
:1001100090E08870992721E0892B09F020E0832F57
:10012000822B882309F48AC081E08983DDCF85E2B0
:1001300090E0FC01308185E290E022E02327FC0181
:10014000208380E090E0AAE7B3E48A839B83AC83BA
:10015000BD8320E030E04AE755E46A817B818C81F1
:100160009D810E94A601DC01CB018E839F83A8871D
:10017000B98720E030E040E85FE36E817F818885C9
:1001800099850E94200188232CF481E090E09B87D0
:100190008A873FC020E03FEF4FE757E46E817F81C1
:1001A000888599850E94A10118164CF520E030E061
:1001B00040E251E46A817B818C819D810E94A6018D
:1001C000DC01CB01BC01CD010E942501DC01CB018A
:1001D0009B878A870FC080E991E09D878C878C85FB
:1001E0009D850197F1F79D878C878A859B8501976F
:1001F0009B878A878A859B85892B69F714C06E81C6
:100200007F81888599850E942501DC01CB019B8730
:100210008A878A859B859F878E878E859F85019794
:10022000F1F79F878E8785E290E0FC01308185E2BF
:1002300090E021E02327FC01208356CF000054CF1B
:100240000E94540108F481E008950E94800188F022
:100250009F5798F0B92F9927B751B0F0E1F0660F8A
:10026000771F881F991F1AF0BA95C9F714C0B130CB
:1002700091F00E949A01B1E008950C949A01672FC1
:10028000782F8827B85F39F0B93FCCF386957795FA
:100290006795B395D9F73EF49095809570956195E3
:1002A0007F4F8F4F9F4F0895990F0008550FAA0B4E
:1002B000E0E8FEEF16161706E807F907C0F0121679
:1002C0001306E407F50798F0621B730B840B950B7C
:1002D00039F40A2661F0232B242B252B21F40895D1
:1002E0000A2609F4A140A6958FEF811D811D08956E
:1002F00057FD9058440F551F59F05F3F71F04795D7
:10030000880F97FB991F61F09F3F79F087950895BB
:10031000121613061406551FF2CF4695F1DF08C0DA
:10032000161617061806991FF1CF869571056105F7
:1003300008940895E894BB2766277727CB0197F99F
:1003400008950E94540108F48FEF08950E94B901A6
:100350000C942A020E941C0238F00E94230220F012
:10036000952311F00C9413020C94190211240C948F
:100370009B010E94780170F3959FC1F3950F50E0A7
:10038000551F629FF001729FBB27F00DB11D639F47
:10039000AA27F00DB11DAA1F649F6627B00DA11DED
:1003A000661F829F2227B00DA11D621F739FB00D93
:1003B000A11D621F839FA00D611D221F749F332703
:1003C000A00D611D231F849F600D211D822F762F9C
:1003D0006A2F11249F5750409AF0F1F088234AF079
:1003E000EE0FFF1FBB1F661F771F881F91505040E5
:1003F000A9F79E3F510580F00C9413020C949B01C9
:100400005F3FE4F3983ED4F3869577956795B7956B
:10041000F795E7959F5FC1F7FE2B880F911D969585
:10042000879597F9089597F99F6780E870E060E0F5
:1004300008959FEF80EC089500240A94161617067D
:1004400018060906089500240A94121613061406C5
:1004500005060895092E0394000C11F4882352F028
:10046000BB0F40F4BF2B11F460FF04C06F5F7F4FE0
:0A0470008F4F9F4F0895F894FFCFBF
:00000001FF
