:100000000C9434000C943E000C943E000C943E0082
:100010000C943E000C943E000C943E000C943E0068
:100020000C943E000C943E000C943E000C943E0058
:100030000C943E000C943E000C943E000C943E0048
:100040000C943E000C943E000C943E000C943E0038
:100050000C943E000C943E000C943E000C943E0028
:100060000C943E000C943E0011241FBECFEFD8E04C
:10007000DEBFCDBF0E946B000C94AD020C9400005B
:10008000CF93DF93CDB7DEB78AE290E0FC01208109
:100090008AE290E0237FFC0120838BE290E0FC0168
:1000A00020818BE290E02C60FC01208384E290E0D0
:1000B000FC01208184E290E02360FC01208385E242
:1000C00090E0FC01208185E290E02360FC01208328
:1000D000DF91CF910895CF93DF93CDB7DEB76D97C2
:1000E0000FB6F894DEBF0FBECDBF0E94400019824C
:1000F000998181E089278823C1F089E290E0FC01A1
:100100008081882F90E084709927892B59F089E2AB
:1001100090E0FC018081882F90E088709927892BDE
:1001200009F0FEC081E08983E3CF85E290E0FC0125
:1001300080818C7F282F216085E290E0FC01208364
:1001400080E090E0AAE7B3E4888B998BAA8BBB8B05
:1001500020E030E04AE755E4688979898A899B89FB
:100160000E941802DC01CB018C8B9D8BAE8BBF8B68
:1001700020E030E040E85FE36C897D898E899F89CB
:100180000E94920188232CF481E090E0998F888F5F
:100190003FC020E03FEF4FE757E46C897D898E89AF
:1001A0009F890E94130218164CF520E030E040E2CF
:1001B00051E4688979898A899B890E941802DC0147
:1001C000CB01BC01CD010E949701DC01CB01998FCD
:1001D000888F0FC080E991E09B8F8A8F8A8D9B8DDD
:1001E0000197F1F79B8F8A8F888D998D0197998F51
:1001F000888F888D998D892B69F714C06C897D89CA
:100200008E899F890E949701DC01CB01998F888F8D
:10021000888D998D9D8F8C8F8C8D9D8D0197F1F799
:100220009D8F8C8F85E290E0FC0180818C7F282F50
:10023000226085E290E0FC01208380E090E0AAE764
:10024000B3E48A839B83AC83BD8320E030E04AE73C
:1002500055E46A817B818C819D810E941802DC01BA
:10026000CB018E839F83A887B98720E030E040E8E8
:100270005FE36E817F81888599850E949201882342
:100280002CF481E090E09B878A873FC020E03FEF1D
:100290004FE757E46E817F81888599850E9413021C
:1002A00018164CF520E030E040E251E46A817B8191
:1002B0008C819D810E941802DC01CB01BC01CD0123
:1002C0000E949701DC01CB019B878A870FC080E9E0
:1002D00091E09D878C878C859D850197F1F79D879F
:1002E0008C878A859B8501979B878A878A859B85D2
:1002F000892B69F7FDCE6E817F81888599850E9463
:100300009701DC01CB019B878A878A859B859F8724
:100310008E878E859F850197F1F79F878E87E8CE20
:100320000000E6CE0E94C60108F481E008950E9414
:10033000F20188F09F5798F0B92F9927B751B0F084
:10034000E1F0660F771F881F991F1AF0BA95C9F759
:1003500014C0B13091F00E940C02B1E008950C94E9
:100360000C02672F782F8827B85F39F0B93FCCF39C
:10037000869577956795B395D9F73EF490958095D6
:10038000709561957F4F8F4F9F4F0895990F00088B
:10039000550FAA0BE0E8FEEF16161706E807F90757
:1003A000C0F012161306E407F50798F0621B730BF2
:1003B000840B950B39F40A2661F0232B242B252B73
:1003C00021F408950A2609F4A140A6958FEF811D16
:1003D000811D089557FD9058440F551F59F05F3FF8
:1003E00071F04795880F97FB991F61F09F3F79F057
:1003F00087950895121613061406551FF2CF4695D9
:10040000F1DF08C0161617061806991FF1CF86955A
:100410007105610508940895E894BB27662777273E
:10042000CB0197F908950E94C60108F48FEF089553
:100430000E942B020C949C020E948E0238F00E94B3
:10044000950220F0952311F00C9485020C948B02F8
:1004500011240C940D020E94EA0170F3959FC1F3E0
:10046000950F50E0551F629FF001729FBB27F00D62
:10047000B11D639FAA27F00DB11DAA1F649F6627B7
:10048000B00DA11D661F829F2227B00DA11D621F06
:10049000739FB00DA11D621F839FA00D611D221FC0
:1004A000749F3327A00D611D231F849F600D211DA4
:1004B000822F762F6A2F11249F5750409AF0F1F027
:1004C00088234AF0EE0FFF1FBB1F661F771F881F90
:1004D00091505040A9F79E3F510580F00C94850241
:1004E0000C940D025F3FE4F3983ED4F38695779524
:1004F0006795B795F795E7959F5FC1F7FE2B880F36
:10050000911D9695879597F9089597F99F6780E8CB
:1005100070E060E008959FEF80EC089500240A9455
:100520001616170618060906089500240A941216CE
:100530001306140605060895092E0394000C11F401
:10054000882352F0BB0F40F4BF2B11F460FF04C0AE
:0E0550006F5F7F4F8F4F9F4F0895F894FFCF3E
:00000001FF
