:100000000C9434000C9451000C9451000C94510049
:100010000C9451000C9451000C94410F0C9451001D
:100020000C9451000C9451000C9451000C9451000C
:100030000C9451000C9451000C9451000C945100FC
:100040000C94EA0E0C9451000C9451000C94510045
:100050000C9451000C9451000C9451000C945100DC
:100060000C9451000C94510011241FBECFEFD8E026
:10007000DEBFCDBF11E0A0E0B1E0E2E0F1E202C0FE
:1000800005900D92A434B107D9F721E0A4E4B1E0C2
:1000900001C01D92A63DB207E1F70E94340F0C94F7
:1000A0007F100C940000789484B5836084BD85B57E
:1000B000836085BDEEE6F0E0808181608083E1E8C9
:1000C000F0E082E08083808181608083E0E8F0E07E
:1000D000808181608083E1EBF0E0808184608083B7
:1000E000E0EBF0E080818160808387E880937A0094
:1000F0001092C10008950FB6F8940F92FC01828D02
:10010000882321F080E00F900FBE089581E0FBCF9F
:10011000A89588E190EC0FB6F894A89580936000BC
:100120000FBE90936000089583B1806283B90895F3
:1001300084B1806284B985B1806285B90895E09107
:100140009C01F0919D018081882371F0E0919C01D8
:10015000F0919D010580F681E02D80819181909341
:1001600098018093970108958FEF9FEF90939801E6
:100170008093970108950F931F93CF93DF938091FE
:10018000C801811108C1C0919E01D0919F018E01CB
:100190000F5F1F4F10939F0100939E0101151105E2
:1001A00029F1809197019091980108171907B0F5EE
:1001B00080E0E091C501F091C601E6892E2F30E084
:1001C000F901EE0FFF1FEE0FFF1FEE0FFF1FE20FF3
:1001D000F31FE056FE4F9081923008F081E090913D
:1001E000C701992309F4E1C081E0DFC080919C013F
:1001F00090919D0120919A0130919B0130939D0136
:1002000020939C0190939B0180939A018091990186
:100210008F5F809399010E949F00C3CF80E05EC0F2
:100220002FEF3FEF3093980120939701C2CF309387
:10023000980120939701BDCF2681378112963C9378
:100240002E9311977EC0158A148A9C9191509C938D
:1002500026899091C401921710F42093C40130E0D4
:10026000D901AA0FBB1FAA0FBB1FAA0FBB1FA20F4A
:10027000B31FA056BE4F11960D90BC91A02DB58313
:10028000A48314962D913C91159737832683149659
:100290002D913C911597E9015B834A8315965C93F8
:1002A0004E931497A6892A2F30E0D901AA0FBB1FBD
:1002B000AA0FBB1FAA0FBB1FA20FB31FA056BE4F92
:1002C000B387A2879C919F5F9C932689E091C5018B
:1002D000F091C6019689921708F481E0E0919C01A3
:1002E000F0919D019081992309F49ACFE0919C01AE
:1002F000F0919D010580F681E02D0680F781E02DCB
:10030000228133810217130708F491CFA285B385A8
:100310002481358146815781E9015D834C832681A3
:10032000378144815581E9015B834A83AF014E5F88
:100330005F4F11962D913C9112972417350709F4C0
:100340007BCF138612869C9191509C93A489B5898A
:10035000109709F47DCF2685378560897189E90179
:100360007D836C832089318966857785E9017B836C
:100370006A8311966D917C9112979F01245F3F4F84
:100380006217730709F05FCF2089318912963C9379
:100390002E93119758CF80919501909196010196D7
:1003A000909396018093950180E0DF91CF911F910A
:1003B0000F9108950E948800A091C501B091C601D7
:1003C000CD91CDBFDD91DEBFFF91EF91DF91CF9158
:1003D000BF91AF919F918F917F916F915F914F915D
:1003E0003F912F911F910F91FF90EF90DF90CF9051
:1003F000BF90AF909F908F907F906F905F904F9045
:100400003F902F901F900F900FBE0F90089581E0A6
:100410000895FC0160833197708331971082319782
:1004200020E820833197108277974083319750835B
:1004300083970895CF93DF93FC01A085B185C28196
:10044000D381848195819D838C83C481D581828170
:1004500093819B838A8311968D919C9112978E171D
:100460009F0741F0118610868C9181508C93DF910B
:10047000CF9108958481958112969C938E931197C4
:10048000F1CFCF93DF93EB01488159814F3F540760
:1004900019F0DC01139605C0FC01A781B0850AC0E4
:1004A000DF011296ED91FC91139720813181421763
:1004B0005307B0F71296ED91FC911397FB83EA83F3
:1004C000D583C483BD83AC831396DC93CE931297FC
:1004D00099878887FC0120812F5F2083DF91CF914E
:1004E0000895FC01118610860895FC0103969283FD
:1004F00081832FEF3FEF3483238396838583908717
:10050000878310820895FC017383628391878087BB
:1005100046175707A0F0421B530B84859585481753
:10052000590710F081E00895BF016E5F7F4F809101
:100530007D0190917E010E94410280E00895421762
:10054000530718F46217730758F4BF016E5F7F4FAB
:1005500080917F01909180010E94410280E0089586
:1005600081E00895DC01E0917F01F091800191E04C
:100570008081811190E09C93911106C00580F681E5
:10058000E02D80819181089590E080E00895EF92C0
:10059000FF920F931F93CF93DF93EC018B017A01AE
:1005A00008C08C859D85080F191FE889F989CE013F
:1005B00009956C857D85600F711F9801A701CE019B
:1005C0000E9483028111EDCFDF91CF911F910F9196
:1005D000FF90EF900895EF92FF920F931F93CF93A8
:1005E000DF938C017B01E0917F01F0918001058018
:1005F000F681E02DC681D781CE0102960E941A02B3
:100600008A8982FD0DC08E7F8A8BE889F989CE01A7
:100610000995DF91CF911F910F91FF90EF90089571
:10062000A701B801CE010E94C702EFCF09C0058023
:10063000F681E02D6FEF7FEF808191810E94EB02C8
:10064000E0917F01F091800180818111F0CF809154
:100650007D0190917E019093800180937F01F093C2
:100660007E01E0937D010895BF92CF92DF92EF92D9
:10067000FF920F931F93CF93DF93EC01B62E00915F
:100680009E0110919F01E0909C01F0909D01C0900F
:100690009A01D0909B018091C5019091C60102966C
:1006A0000E941A02CF3FDC0711F1C00FD11FE09169
:1006B000C501F091C601D383C283C017D10708F4E6
:1006C0004CC06091C5017091C6016E5F7F4FC7013C
:1006D0000E9441028091970190919801C817D90713
:1006E00008F044C0D0939801C09397013FC0BB204D
:1006F000E1F2E0E7F1E0A181B281C091C501D091C2
:10070000C601BD83AC83C091C501D091C6011496CA
:100710008D919C9115979F838E838091C5019091B7
:10072000C6011496CD91DC91159702969B838A831E
:100730008091C5019091C601029615969C938E9367
:100740001497A091C501B091C6011B96FC93EE933E
:100750001A9780818F5F808309C06091C501709175
:10076000C6016E5F7F4FC6010E944102DF91CF91AB
:100770001F910F91FF90EF90DF90CF90BF90089561
:10078000CF93C0E010C02C2F30E0C901880F991F13
:10079000880F991F880F991F820F931F80569E4FB5
:1007A0000E947502CF5FC43070F38CE591E00E9427
:1007B000750283E591E00E9475028AE491E00E944F
:1007C000750287E691E00E94750280E791E00E9441
:1007D00075028CE591E090939D0180939C0183E5E7
:1007E00091E090939B0180939A01CF91089581E0CD
:1007F0008093C701089520919901FC0120832091E5
:100800009E0130919F013283218308951F93CF93DE
:10081000DF930FB6F8940F9240919E0150919F0183
:10082000DC011196ED91FC91DA01AE1BBF0BEB01DF
:10083000288139812F3F320721F1EC011881C091C5
:1008400099011C1719F04E175F0768F4A217B30738
:1008500078F0EB011982188281E00F900FBEDF91D2
:10086000CF911F910895FB011182108281E0F5CF95
:100870002A1B3B0BDB012D933C930E94FB0380E082
:10088000ECCF80E0EACFCF93DF93DC011596ED91BA
:10089000FC910680F781E02DA489B589C685D785AE
:1008A000808991899D838C83C089D189868597852C
:1008B0009B838A839F01245F3F4F11968D919C916A
:1008C00012978217930709F471C0158A148A8C91C4
:1008D00081508C938091C801811176C0A285B38527
:1008E000C481D581868197819D838C83C681D78180
:1008F000848195819B838A839F012E5F3F4F119650
:100900008D919C9112978217930709F456C0138614
:1009100012868C9181508C9386899091C40198178E
:1009200010F48093C40190E0DC01AA0FBB1FAA0F52
:10093000BB1FAA0FBB1FA80FB91FA056BE4F119611
:100940000D90BC91A02DB583A48314968D919C919C
:100950001597978386831496CD91DC9115973B83E9
:100960002A8315963C932E931497A6898A2F90E09C
:10097000DC01AA0FBB1FAA0FBB1FAA0FBB1FA80F2A
:10098000B91FA056BE4FB387A2878C918F5F8C93FF
:100990009689E091C501F091C6018689891780F595
:1009A00081E08093C701DF91CF910895808991897B
:1009B00012969C938E93119788CF86819781129679
:1009C0009C938E931197A3CF4AE451E0DA011196DC
:1009D000CD91DC91D787C6878C819D81918B808B4F
:1009E0008C819D81DC0113963C932E9312973D835D
:1009F0002C83558B448BDA018C918F5F8C93C8CFFD
:100A000080E0D1CF1F93CF93DF93EC010FB6F89422
:100A10000F921E8D03C00E94F7031150111654F45B
:100A20008989882339F0CE0141960E9443048823A6
:100A3000A1F3F1CF8FEF8E8F0F900FBE0FB6F8940A
:100A40000F921D8D03C00E94F7031150111654F42C
:100A50008885882339F0CE0108960E9443048823B4
:100A6000A1F3F1CF8FEF8D8F0F900FBEDF91CF915C
:100A70001F9108950F931F93CF93DF93FC018B0178
:100A8000A181B2818091C5019091C601EC01BF871F
:100A9000AE878091C5019091C60114962D913C912D
:100AA0001597EC01398B288B2091C5013091C60137
:100AB00014968D919C911597245F3F4FEC013B83D9
:100AC0002A832091C5013091C601245F3F4F1596BE
:100AD0003C932E931497A091C501B091C6015596F1
:100AE000FC93EE93549790819F5F9083442311F081
:100AF0000FEF1FEF642FC8010E943403DF91CF91E5
:100B00001F910F910895CF93DF93EC010FB6F894E6
:100B10000F928D8D8F3F71F08E8D8F3F69F00F900A
:100B20000FBE8A8D882351F0CE010E940205DF910D
:100B3000CF9108951D8EF0CF1E8EF1CFCE0141963C
:100B40000E943A05F1CFCF93DF93EB016091C5018D
:100B50007091C601645F7F4F0E94410261E0CE0147
:100B60000E943403DF91CF9108950FB6F8940F924D
:100B700080919E0190919F010F900FBE08950F9359
:100B80001F93CF93DF938C010E94B505EC018091F8
:100B90007B0190917C01C817D90760F0F8011082A1
:100BA000D0937C01C0937B01CE01DF91CF911F9147
:100BB0000F9108950E94160381E0F8018083F0CF21
:100BC0008091C8018F5F8093C8010895089580E0E7
:100BD00090E0892B11F00E94000008959091C000D0
:100BE00095FFFCCF8093C6000895CF93DF93EC016F
:100BF0008881882321F00E94EE052196F9CFDF91AC
:100C0000CF9108951092C0001092C50087E680939E
:100C1000C40088E08093C10086E08093C2000895FC
:100C2000FC01448D4423A9F050E026813781240F34
:100C3000351F37832683848195812817390720F053
:100C40008081918197838683CB01668177810E9421
:100C50006F1008950F920FB6F8940F921F921124FF
:100C60002F923F924F925F926F927F928F929F92BC
:100C7000AF92BF92CF92DF92EF92FF920F931F93AA
:100C80002F933F934F935F936F937F938F939F9394
:100C9000AF93BF93CF93DF93EF93FF93A091C501E1
:100CA000B091C6010DB60D920EB60D9213BE809195
:100CB000C801811111C120919E0130919F012F5FC8
:100CC0003F4F30939F0120939E012115310581F5FF
:100CD00080919C0190919D0140919A0150919B01BE
:100CE00050939D0140939C0190939B0180939A01A6
:100CF000809199018F5F80939901E0919C01F0911F
:100D00009D018081811107C08FEF9FEF9093980123
:100D1000809397010DC0E0919C01F0919D010580A9
:100D2000F681E02D808191819093980180939701C5
:100D300080919701909198012817390720F440E09D
:100D4000B1C041E001C040E0E0919C01F0919D0103
:100D50008081811107C08FEF9FEF9093980180935E
:100D60009701A0C0E0919C01F0919D010580F68162
:100D7000E02D0680F781E02D8281938128173907C5
:100D800028F490939801809397018CC0A285B38535
:100D9000C481D581668177817D836C83C681D7814B
:100DA000648175817B836A83BF016E5F7F4F11967B
:100DB0008D919C9112978617970731F486819781C0
:100DC00012969C938E931197138612868C91815064
:100DD0008C93A489B589109701F1C685D785808940
:100DE00091899D838C83C089D189868597859B83D2
:100DF0008A831196CD91DC911297CF010C96C8177A
:100E0000D90731F48089918912969C938E9311971A
:100E1000158A148A8C9181508C9386899091C40193
:100E2000981710F48093C40190E0DC01AA0FBB1F57
:100E3000AA0FBB1FAA0FBB1FA80FB91FA056BE4FFA
:100E400011960D90BC91A02DB583A48314968D911D
:100E50009C911597978386831496CD91DC91159775
:100E60007B836A8315967C936E931497868990E0B2
:100E7000DC01AA0FBB1FAA0FBB1FAA0FBB1FA80F25
:100E8000B91FA056BE4FB387A2878C918F5F8C93FA
:100E90009689E091C501F091C6018689891708F409
:100EA00050CF52CFE091C501F091C601868990E004
:100EB000FC01EE0FFF1FEE0FFF1FEE0FFF1FE80FED
:100EC000F91FE056FE4F8081823008F041E08091AA
:100ED000C70181110CC00CC08091950190919601C1
:100EE0000196909396018093950140E001C041E006
:100EF000442309F489C08091C801882321F081E04E
:100F00008093C70181C01092C701A091C501B09123
:100F1000C601E091C501F091C6012D913C918789F0
:100F2000908D82179307D8F08091C5019091C601EA
:100F30008091C5019091C60184B1806284B985B168
:100F4000806285B92FEF87EA91E62150804090407A
:100F5000E1F700C0000083B1806283B9F3CF409114
:100F6000C40101C04150842F90E0FC01EE0FFF1F2F
:100F7000EE0FFF1FEE0FFF1FE80FF91FE056FE4FA9
:100F80002081222379F39C01220F331F220F331F6C
:100F9000220F331F280F391FF901E056FE4FA181A0
:100FA000B28112966D917C91728361832D553E4F73
:100FB0006217730779F4FC01EE0FFF1FEE0FFF1F9E
:100FC000EE0FFF1FE80FF91FE056FE4F2581368117
:100FD00032832183FC01EE0FFF1FEE0FFF1FEE0F88
:100FE000FF1FE80FF91FE056FE4F0180F281E02D50
:100FF000868197819093C6018093C5014093C40177
:101000008091C5019091C601A091C501B091C60122
:10101000CD91CDBFDD91DEBFFF91EF91DF91CF91FB
:10102000BF91AF919F918F917F916F915F914F9100
:101030003F912F911F910F91FF90EF90DF90CF90F4
:10104000BF90AF909F908F907F906F905F904F90E8
:101050003F902F901F900F900FBE0F9008950F920A
:101060000FB6F8940F921F9211242F923F924F9235
:101070005F926F927F928F929F92AF92BF92CF9228
:10108000DF92EF92FF920F931F932F933F934F9313
:101090005F936F937F938F939F93AF93BF93CF9300
:1010A000DF93EF93FF93A091C501B091C6010DB6F8
:1010B0000D920EB60D928091C801882321F081E037
:1010C0008093C70181C01092C701A091C501B09162
:1010D000C601E091C501F091C6012D913C9187892F
:1010E000908D82179307D8F08091C5019091C60129
:1010F0008091C5019091C60184B1806284B985B1A7
:10110000806285B92FEF87EA91E6215080409040B8
:10111000E1F700C0000083B1806283B9F3CF409152
:10112000C40101C04150842F90E0FC01EE0FFF1F6D
:10113000EE0FFF1FEE0FFF1FE80FF91FE056FE4FE7
:101140002081222379F39C01220F331F220F331FAA
:10115000220F331F280F391FF901E056FE4FA181DE
:10116000B28112966D917C91728361832D553E4FB1
:101170006217730779F4FC01EE0FFF1FEE0FFF1FDC
:10118000EE0FFF1FE80FF91FE056FE4F2581368155
:1011900032832183FC01EE0FFF1FEE0FFF1FEE0FC6
:1011A000FF1FE80FF91FE056FE4F0180F281E02D8E
:1011B000868197819093C6018093C5014093C401B5
:1011C0008091C5019091C601A091C501B091C60161
:1011D000CD91CDBFDD91DEBFFF91EF91DF91CF913A
:1011E000BF91AF919F918F917F916F915F914F913F
:1011F0003F912F911F910F91FF90EF90DF90CF9033
:10120000BF90AF909F908F907F906F905F904F9026
:101210003F902F901F900F900FBE0F900895CF9387
:10122000DF93009709F447C0FC01238D222309F4C2
:1012300044C0EC010FB6F8940F9220813181838D68
:1012400090E0448D50E0849FF001859FF00D949FC5
:10125000F00D1124E20FF31FFD83EC831A8E3B8304
:101260002A830197849FF001859FF00D949FF00DD4
:1012700011242E0F3F1F3F832E838FEF8D8F8E8F74
:10128000611110C08885811104C00F900FBE81E0EC
:1012900015C0CE0108960E9443048823B1F30E9432
:1012A0002F08F3CFCE0108960E947502CE01419619
:1012B0000E947502EACF80E001C080E0DF91CF910B
:1012C00008950F931F93F801662359F051834083CB
:1012D000838F648F61E0CF010E940F091F910F91EE
:1012E000089511830083F4CFCF93DF930FB6F89462
:1012F0000F928091C80181508093C8018091C801EC
:101300008111CDC080916601882309F4C9C0F0E045
:10131000E0E080914A01882309F49AC0E0914F01EE
:10132000F09150010680F781E02DA489B589C6852A
:10133000D785808991899D838C83C089D189868551
:1013400097859B838A83CF010C9611962D913C91B2
:1013500012972817390709F46DC0158A148A8C91E1
:1013600081508C93A285B385C481D5818681978174
:101370009D838C83C681D781848195819B838A8359
:101380009F012E5F3F4F11968D919C91129782176E
:10139000930709F456C0138612868C9181508C9362
:1013A00086899091C401981710F48093C40190E04D
:1013B000DC01AA0FBB1FAA0FBB1FAA0FBB1FA80FE0
:1013C000B91FA056BE4F11960D90BC91A02DB583AC
:1013D000A48314968D919C91159797838683149678
:1013E000CD91DC9115973B832A8315963C932E93E0
:1013F0001497A6898A2F90E0DC01AA0FBB1FAA0FC1
:10140000BB1FAA0FBB1FA80FB91FA056BE4FB387A3
:10141000A2878C918F5F8C939689A091C501B09122
:10142000C60156968C91891708F073CF81E080939E
:10143000C7016FCF8089918912969C938E931197E3
:101440008CCF8681978112969C938E931197A3CF10
:10145000EF2B11F00E949F00C0919501D091960151
:10146000209741F48091C701811111C080E018C01C
:10147000219741F00E94BB008823D1F381E0809343
:10148000C701F6CF1092960110929501EBCF809193
:10149000C5019091C6010E942F0881E001C080E043
:1014A0000F900FBEDF91CF910895CF92DF92EF9210
:1014B000FF920F931F93CF93DF9300D000D01F9222
:1014C000CDB7DEB78C016B015D834C83E12C43C04B
:1014D000B601C8010E941006FA94F801F28E8085C8
:1014E000811111C00F900FBE81E00F900F900F90EF
:1014F0000F900F90DF91CF911F910F91FF90EF9080
:10150000DF90CF900895C80108960E944304882375
:1015100049F30E942F08E6CF0F900FBE80E0E5CF81
:10152000CE0101960E94FB03EE24E39421C0158EA8
:101530002AC0168E2CC0C8010E9402050E947409A0
:101540000AC0C8010E9402050E947409C8010E94D5
:101550007B0081113DC00FB6F8940F92F801F28C18
:10156000F110B6CF8C819D81892BB1F2EE20C1F2B2
:101570000F900FBE0E94E0050FB6F8940F92F8018D
:10158000858D8F3FA1F2F801868D8F3F91F20F90EC
:101590000FBEBE016C5F7F4FCE0101960E94060414
:1015A0008111CFCFC8010E947B00882309F4C3CFEB
:1015B0006C817D81C80141960E94A305C8010E94EB
:1015C00002050E9474098111C6CF0E942F08C3CF63
:1015D00080E08BCFCF92DF92EF92FF921F93CF9359
:1015E000DF931F92CDB7DEB77C01162F0E94E00576
:1015F000CE0101960E94BF056C018981811130C026
:10160000111103C0CE14DF0408F5112341F0E0915D
:101610007D01F0917E0111E08081811110E0B70120
:101620006C197D09412F80919301909194010E9442
:1016300083050E947409882381F00F90DF91CF9178
:101640001F91FF90EF90DF90CF9008950E94740952
:10165000B601C7010E94EB02F0CF0E942F08EDCF28
:101660000E947409EACFCF93DF93EC01892B51F0EC
:101670000E94E00560E0CE010E9434030E947409DC
:10168000811102C00E942F08DF91CF910895EC01D3
:1016900087E091E00E94F505CE010E94F50583E107
:1016A00091E00E94F5058FE190E00E94330BF0CFAE
:1016B000CF93DF93EC010FB6F8940F9280916601FF
:1016C0008F5F809366018091C5019091C601892B3F
:1016D00089F080914901811116C0E091C501F09116
:1016E000C60196898E89891770F0D093C601C09380
:1016F000C50109C0D093C601C093C50180916601A0
:10170000813009F44FC0809146018F5F809346017C
:101710008E899091C401981710F48093C40190E0D1
:10172000FC01EE0FFF1FEE0FFF1FEE0FFF1FE80F74
:10173000F91FE056FE4F0180F281E02DFD83EC831E
:10174000848195819F838E83A481B581CE01029689
:1017500013969C938E93129795838483EE898E2F94
:1017600090E0FC01EE0FFF1FEE0FFF1FEE0FFF1FBB
:10177000E80FF91FE056FE4FFB87EA8780818F5FF5
:1017800080830F900FBE80914901882341F0E09142
:10179000C501F091C60196898E89981730F0DF91C6
:1017A000CF9108950E94C003AECF0E942F08F7CFBB
:1017B0000E9498002FEF80E792E0215080409040F7
:1017C000E1F700C000000E949400F4CFCF93DF93B4
:1017D000009741F0EC010E94E005CE010E94E00F6D
:1017E0000E947409DF91CF910895EF92FF920F93B9
:1017F0001F93CF93DF9300D000D000D0CDB7DEB7DA
:1018000085E0FE013196DF011D928A95E9F750E0EF
:1018100040E0BE016F5F7F4F8091930190919401F2
:101820000E94550A882309F47BC0898188237CF3B0
:101830000C811D81F80182859385892B21F0C801D7
:1018400002960E941A02CE0106960E94BF057C01F4
:10185000E981E150E930D8F60E2E000CFF0BED5C6B
:10186000F34F0C9469103C0C3C0C6A0C6F0C850C0B
:101870003C0C3C0C6A0C6F0CD80152968C91529720
:10188000816052968C9352972A813B811C966D9170
:101890007C91620F731FA701C8010E9483028823F5
:1018A00009F4B5CFF801828982FD09C08E7F828B51
:1018B000D8015096ED91FC91C8010995A8CF6A8195
:1018C0007B8184859585680F791FA701C8010E94D7
:1018D000C702EECFF80182898E7F828B98CFD80124
:1018E00052968C915297816052968C9352976A814E
:1018F0007B811D967C936E931C976E0D7F1D9701C7
:10190000A701C8010E94830282CFF801828981FF6A
:1019100003C08E7F828B7BCFC8010E94E60B77CFFE
:1019200026960FB6F894DEBF0FBECDBFDF91CF91E4
:101930001F910F91FF90EF900895CF93DF931F9227
:10194000CDB7DEB7CE0101960E94B20269810E9436
:10195000EA0A0E94F50BF6CFCF93DF93EC018F8953
:10196000988D0E94E60BCE010E94E60BDF91CF918D
:101970000895CF93DF931CC00FB6F8940F92E091B7
:101980006C01F0916D01C681D781CE0102960E9453
:101990001A028091660181508093660180916501F1
:1019A0008150809365010F900FBECE010E94AC0C58
:1019B000809165018111E0CFDF91CF91089502C040
:1019C0000E94E7050E94B90C8091A0018230C0F30B
:1019D0000E942F08F5CFCF93DF93EC010E94E00522
:1019E000CE010E94440FEC010E947409209721F05F
:1019F000CE01DF91CF9108950E94D80BDF92EF9234
:101A0000FF920F931F93CF93DF93882319F1869F43
:101A100090011124213E9FEF3907F8F4D42ED62FE0
:101A2000C82FC9014F960E94EB0C7C01009749F02A
:101A30008C012D2DAC01415E5F4F6D2F8C2F0E94CC
:101A40006109C701DF91CF911F910F91FF90EF9036
:101A5000DF900895F12CE12CF4CFF12CE12CF1CFA3
:101A60000FB6F8940F928091930190919401892B75
:101A700019F00F900FBE08958AE891E00E94750258
:101A800081E891E00E9475028AE891E090938001DC
:101A900080937F0181E891E090937E0180937D01A6
:101AA00040E065E08AE00E94FE0C909394018093F0
:101AB0009301DFCF4F925F926F927F928F929F92AE
:101AC000AF92BF92CF92DF92EF92FF920F93CF939C
:101AD000DF932C015B014A013901E60165EA70E000
:101AE0008F89988D0E9478108F89988D21E0821AB5
:101AF0009108880E991EA114B104A1F020E02031B4
:101B000080F4822F90E0F501E80FF91F30818C0FEF
:101B10009D1FDC0159963C938081882311F02F5F33
:101B2000EECF18A6043008F003E00E8B09A7CE0113
:101B300002960E947102CE010C960E947102D98712
:101B4000C88784E090E0801B91099D878C87DB8BA0
:101B5000CA8BA301B201C4010E9409029983888340
:101B6000E114F10419F0F701D183C083DF91CF9123
:101B70000F91FF90EF90DF90CF90BF90AF909F902C
:101B80008F907F906F905F904F9008952F923F922B
:101B90004F925F926F927F928F929F92AF92BF927D
:101BA000CF92DF92EF92FF920F93CF93DF934C018E
:101BB0001B012A013901CA010E94EB0C6C01892B1F
:101BC00081F180E390E00E94EB0CEC01892B29F17C
:101BD00080E3FE0111928A95E9F7D88ECF8A20978B
:101BE00049F0B12CA12C6E019301A201B101C401F5
:101BF0000E945A0DCE01DF91CF910F91FF90EF908F
:101C0000DF90CF90BF90AF909F908F907F906F901C
:101C10005F904F903F902F900895C6010E94E60B71
:101C2000DECFD0E0C0E0E6CFEF92FF920F930E94AC
:101C3000C60D009739F00E94580B81E00F91FF907C
:101C4000EF9008958FEFFACFEF92FF920F930E94DB
:101C5000300D8091930190919401892BA9F00F2E62
:101C6000F9E7EF2EF1E0FF2EF02D03E030E020E069
:101C70004CE550E066E171E08DE99CE00E94140EB5
:101C80000F91FF90EF90089580E0FACFEF92FF92CE
:101C90000F931F93CF93DF93CDB7DEB760970FB647
:101CA000F894DEBF0FBECDBF80E080319CF4E82FFA
:101CB000082E000CFF0BDF01A25EBE4F9C9121E0BD
:101CC00030E02C0F3D1FE20FF31F9083992311F09A
:101CD0008F5FEBCF10E081E011166CF460960FB6C9
:101CE000F894DEBF0FBECDBFDF91CF911F910F9152
:101CF000FF90EF900895E12EEE0CFF08C701895B7D
:101D00009E4F7C0100E030E020E040EC50E0BE015E
:101D10006F5F7F4F8FED9CE00E94140E8823F1F2DD
:101D20001F5FDACF0E94460E813029F0813031F0FA
:101D30008091000108950E94240EF8CFF8948FEF4F
:101D40009FEF909398018093970181E080934901E0
:101D500010929F0110929E010E94DA01E9CFEF924A
:101D6000FF920F930E940206F12CE12C01E023E286
:101D700031E044E650E06BE271E087E49BE00E94D2
:101D8000140E2EE231E044E650E066E371E087E4B1
:101D90009BE00E94140E29E331E044E650E061E448
:101DA00071E087E49BE00E94140E0F91FF90EF908A
:101DB000089520910501309106018FEF98E0821B74
:101DC000930B90930201809301010E94AF0E0E9439
:101DD000920E08951F920F920FB60F9211242F9317
:101DE0003F938F939F93AF93BF938091CE01909138
:101DF000CF01A091D001B091D1013091CD0123E06C
:101E0000230F2D3758F50196A11DB11D2093CD014B
:101E10008093CE019093CF01A093D001B093D101D4
:101E20008091C9019091CA01A091CB01B091CC01E0
:101E30000196A11DB11D8093C9019093CA01A09381
:101E4000CB01B093CC01BF91AF919F918F913F9106
:101E50002F910F900FBE0F901F90189526E8230F1B
:101E60000296A11DB11DD2CF0E9453000E94D90E2F
:101E70000E94AF0E80E090E0892BE1F30E94000009
:101E8000F9CF0E942A0618950F931F93CF93DF93E3
:101E90008230910510F482E090E0E091D401F0915D
:101EA000D50130E020E0B0E0A0E0309799F42115B2
:101EB000310509F44AC0281B390B24303105D8F507
:101EC0008A819B816115710589F1FB01938382836E
:101ED000FE0111C0408151810281138148175907C9
:101EE000E0F04817590799F4109761F012960C9397
:101EF000129713961C933296CF01DF91CF911F91C9
:101F00000F9108950093D4011093D501F4CF2115BA
:101F1000310551F04217530738F0A901DB019A014E
:101F2000BD01DF01F801C1CFEF01F9CF9093D501D9
:101F30008093D401CDCFFE01E20FF31F81939193E3
:101F40002250310939832883D7CF2091D201309193
:101F5000D301232B41F420910301309104013093EC
:101F6000D3012093D201209101013091020121156A
:101F7000310541F42DB73EB740910501509106015E
:101F8000241B350BE091D201F091D301E217F30746
:101F9000A0F42E1B3F0B2817390778F0AC014E5FD9
:101FA0005F4F2417350748F04E0F5F1F5093D30142
:101FB0004093D201819391939FCFF0E0E0E09CCFDA
:101FC000CF93DF930097E9F0FC01329713821282DE
:101FD000A091D401B091D501ED0130E020E010973F
:101FE000A1F420813181820F931F2091D201309181
:101FF000D3012817390709F061C0F093D301E093AA
:10200000D201DF91CF910895EA01CE17DF07E8F5FD
:102010004A815B819E0141155105B1F7E901FB83BE
:10202000EA8349915991C40FD51FEC17FD0761F45C
:10203000808191810296840F951FE901998388839D
:10204000828193819B838A83F0E0E0E012968D91F8
:102050009C9113970097B9F52D913C911197CD0163
:102060000296820F931F2091D2013091D30128173D
:10207000390739F6309751F51092D5011092D401F5
:10208000B093D301A093D201BCCFD383C28340814C
:102090005181840F951FC817D90761F44E5F5F4FB8
:1020A00088819981480F591F518340838A819B8180
:1020B000938382832115310509F0B0CFF093D501C8
:1020C000E093D4019ECFFD01DC01C0CF13821282C8
:1020D000D7CFEE0FFF1F0590F491E02D0994FB017F
:1020E000DC0102C001900D9241505040D8F7089594
:1020F000DC0101C06D9341505040E0F70895F89421
:02210000FFCF0F
:10210200030000D6018000486F6C6120646573642F
:102112006520000D0A00546D722053766300494415
:102122004C450054617265612031005431005461A4
:10213200726561203200543200546172656120334D
:042142000054330012
:00000001FF
